{"abi":[{"inputs":[{"internalType":"address","name":"_priceFeed","type":"address"}],"stateMutability":"nonpayable","type":"constructor","name":"constructor"},{"inputs":[{"internalType":"address","name":"","type":"address"}],"name":"addressToAmountFunded","outputs":[{"internalType":"uint256","name":"","type":"uint256"}],"stateMutability":"view","type":"function"},{"inputs":[],"name":"fund","outputs":[],"stateMutability":"payable","type":"function"},{"inputs":[{"internalType":"uint256","name":"","type":"uint256"}],"name":"funders","outputs":[{"internalType":"address","name":"","type":"address"}],"stateMutability":"view","type":"function"},{"inputs":[{"internalType":"uint256","name":"ethAmount","type":"uint256"}],"name":"getConversionRate","outputs":[{"internalType":"uint256","name":"","type":"uint256"}],"stateMutability":"view","type":"function"},{"inputs":[],"name":"getEntranceFee","outputs":[{"internalType":"uint256","name":"","type":"uint256"}],"stateMutability":"view","type":"function"},{"inputs":[],"name":"getPrice","outputs":[{"internalType":"uint256","name":"","type":"uint256"}],"stateMutability":"view","type":"function"},{"inputs":[],"name":"getPrice_notUsed","outputs":[{"internalType":"uint256","name":"","type":"uint256"}],"stateMutability":"view","type":"function"},{"inputs":[],"name":"getVersion","outputs":[{"internalType":"uint256","name":"","type":"uint256"}],"stateMutability":"view","type":"function"},{"inputs":[],"name":"getVersion_notUsed","outputs":[{"internalType":"uint256","name":"","type":"uint256"}],"stateMutability":"view","type":"function"},{"inputs":[],"name":"owner","outputs":[{"internalType":"address","name":"","type":"address"}],"stateMutability":"view","type":"function"},{"inputs":[],"name":"priceFeed","outputs":[{"internalType":"contract AggregatorV3Interface","name":"","type":"address"}],"stateMutability":"view","type":"function"},{"inputs":[],"name":"withdraw","outputs":[],"stateMutability":"payable","type":"function"}],"bytecode":"608060405234801561001057600080fd5b5060405161075a38038061075a8339818101604052602081101561003357600080fd5b5051600380546001600160a01b039092166001600160a01b031992831617905560028054909116331790556106ed8061006d6000396000f3fe6080604052600436106100a75760003560e01c8063741bef1a11610064578063741bef1a146101645780638da5cb5b1461019557806398d5fdca146101aa578063b60d4288146101bf578063dc0d3dff146101c7578063fddc1af7146101f1576100a7565b806309bc33a7146100ac5780630d8e6e2c146100d35780632e405371146100e85780633ccfd60b146100fd5780633e47d6f3146101075780636e5b6b281461013a575b600080fd5b3480156100b857600080fd5b506100c1610206565b60408051918252519081900360200190f35b3480156100df57600080fd5b506100c161023a565b3480156100f457600080fd5b506100c16102b0565b610105610335565b005b34801561011357600080fd5b506100c16004803603602081101561012a57600080fd5b50356001600160a01b03166103e0565b34801561014657600080fd5b506100c16004803603602081101561015d57600080fd5b50356103f2565b34801561017057600080fd5b50610179610412565b604080516001600160a01b039092168252519081900360200190f35b3480156101a157600080fd5b50610179610421565b3480156101b657600080fd5b506100c1610430565b6101056104bd565b3480156101d357600080fd5b50610179600480360360208110156101ea57600080fd5b503561057a565b3480156101fd57600080fd5b506100c16105a1565b60006802b5e3af16b18800008161021b610430565b9050670de0b6b3a7640000818382028161023157fe5b04935050505090565b6003546040805163054fd4d560e41b815290516000926001600160a01b0316916354fd4d50916004808301926020929190829003018186803b15801561027f57600080fd5b505afa158015610293573d6000803e3d6000fd5b505050506040513d60208110156102a957600080fd5b5051905090565b600080738a753747a1fa494ec906ce90e9f37563a8af630e9050806001600160a01b03166354fd4d506040518163ffffffff1660e01b815260040160206040518083038186803b15801561030357600080fd5b505afa158015610317573d6000803e3d6000fd5b505050506040513d602081101561032d57600080fd5b505191505090565b6002546001600160a01b0316331461034c57600080fd5b60405133904780156108fc02916000818181858888f19350505050158015610378573d6000803e3d6000fd5b5060005b6001548110156103bf5760006001828154811061039557fe5b60009182526020808320909101546001600160a01b0316825281905260408120555060010161037c565b5060408051600081526020810191829052516103dd91600191610633565b50565b60006020819052908152604090205481565b6000806103fd610430565b670de0b6b3a764000093029290920492915050565b6003546001600160a01b031681565b6002546001600160a01b031681565b600080600360009054906101000a90046001600160a01b03166001600160a01b031663feaf968c6040518163ffffffff1660e01b815260040160a06040518083038186803b15801561048157600080fd5b505afa158015610495573d6000803e3d6000fd5b505050506040513d60a08110156104ab57600080fd5b50602001516402540be4000291505090565b6802b5e3af16b1880000806104d1346103f2565b1015610524576040805162461bcd60e51b815260206004820152601b60248201527f596f75206e65656420746f207370656e64206d6f726520455448210000000000604482015290519081900360640190fd5b5033600081815260208190526040812080543401905560018054808201825591527fb10e2d527612073b26eecdfd717e6a320cf44b4afac2b0732d9fcbe2b7fa0cf60180546001600160a01b0319169091179055565b6001818154811061058757fe5b6000918252602090912001546001600160a01b0316905081565b600080738a753747a1fa494ec906ce90e9f37563a8af630e90506000816001600160a01b031663feaf968c6040518163ffffffff1660e01b815260040160a06040518083038186803b1580156105f657600080fd5b505afa15801561060a573d6000803e3d6000fd5b505050506040513d60a081101561062057600080fd5b50602001516402540be400029250505090565b828054828255906000526020600020908101928215610688579160200282015b8281111561068857825182546001600160a01b0319166001600160a01b03909116178255602090920191600190910190610653565b50610694929150610698565b5090565b5b808211156106945780546001600160a01b031916815560010161069956fea26469706673582212203c3e8093756a91a4641eba32e05cbf0e21a2083f3e935dd529b3c8fd422ffed564736f6c634300060c0033","bytecodeSha1":"2319fec75338c992c07bfd89ecbce72d4355a9ef","compiler":{"evm_version":"istanbul","optimizer":{"enabled":true,"runs":200},"version":"0.6.12+commit.27d51765"},"contractName":"FundMe","language":"Solidity","natspec":{"kind":"dev","methods":{},"version":1},"opcodes":"PUSH1 0x80 PUSH1 0x40 MSTORE PUSH1 0x4 CALLDATASIZE LT PUSH2 0xA7 JUMPI PUSH1 0x0 CALLDATALOAD PUSH1 0xE0 SHR DUP1 PUSH4 0x741BEF1A GT PUSH2 0x64 JUMPI DUP1 PUSH4 0x741BEF1A EQ PUSH2 0x164 JUMPI DUP1 PUSH4 0x8DA5CB5B EQ PUSH2 0x195 JUMPI DUP1 PUSH4 0x98D5FDCA EQ PUSH2 0x1AA JUMPI DUP1 PUSH4 0xB60D4288 EQ PUSH2 0x1BF JUMPI DUP1 PUSH4 0xDC0D3DFF EQ PUSH2 0x1C7 JUMPI DUP1 PUSH4 0xFDDC1AF7 EQ PUSH2 0x1F1 JUMPI PUSH2 0xA7 JUMP JUMPDEST DUP1 PUSH4 0x9BC33A7 EQ PUSH2 0xAC JUMPI DUP1 PUSH4 0xD8E6E2C EQ PUSH2 0xD3 JUMPI DUP1 PUSH4 0x2E405371 EQ PUSH2 0xE8 JUMPI DUP1 PUSH4 0x3CCFD60B EQ PUSH2 0xFD JUMPI DUP1 PUSH4 0x3E47D6F3 EQ PUSH2 0x107 JUMPI DUP1 PUSH4 0x6E5B6B28 EQ PUSH2 0x13A JUMPI JUMPDEST PUSH1 0x0 DUP1 REVERT JUMPDEST CALLVALUE DUP1 ISZERO PUSH2 0xB8 JUMPI PUSH1 0x0 DUP1 REVERT JUMPDEST POP PUSH2 0xC1 PUSH2 0x206 JUMP JUMPDEST PUSH1 0x40 DUP1 MLOAD SWAP2 DUP3 MSTORE MLOAD SWAP1 DUP2 SWAP1 SUB PUSH1 0x20 ADD SWAP1 RETURN JUMPDEST CALLVALUE DUP1 ISZERO PUSH2 0xDF JUMPI PUSH1 0x0 DUP1 REVERT JUMPDEST POP PUSH2 0xC1 PUSH2 0x23A JUMP JUMPDEST CALLVALUE DUP1 ISZERO PUSH2 0xF4 JUMPI PUSH1 0x0 DUP1 REVERT JUMPDEST POP PUSH2 0xC1 PUSH2 0x2B0 JUMP JUMPDEST PUSH2 0x105 PUSH2 0x335 JUMP JUMPDEST STOP JUMPDEST CALLVALUE DUP1 ISZERO PUSH2 0x113 JUMPI PUSH1 0x0 DUP1 REVERT JUMPDEST POP PUSH2 0xC1 PUSH1 0x4 DUP1 CALLDATASIZE SUB PUSH1 0x20 DUP2 LT ISZERO PUSH2 0x12A JUMPI PUSH1 0x0 DUP1 REVERT JUMPDEST POP CALLDATALOAD PUSH1 0x1 PUSH1 0x1 PUSH1 0xA0 SHL SUB AND PUSH2 0x3E0 JUMP JUMPDEST CALLVALUE DUP1 ISZERO PUSH2 0x146 JUMPI PUSH1 0x0 DUP1 REVERT JUMPDEST POP PUSH2 0xC1 PUSH1 0x4 DUP1 CALLDATASIZE SUB PUSH1 0x20 DUP2 LT ISZERO PUSH2 0x15D JUMPI PUSH1 0x0 DUP1 REVERT JUMPDEST POP CALLDATALOAD PUSH2 0x3F2 JUMP JUMPDEST CALLVALUE DUP1 ISZERO PUSH2 0x170 JUMPI PUSH1 0x0 DUP1 REVERT JUMPDEST POP PUSH2 0x179 PUSH2 0x412 JUMP JUMPDEST PUSH1 0x40 DUP1 MLOAD PUSH1 0x1 PUSH1 0x1 PUSH1 0xA0 SHL SUB SWAP1 SWAP3 AND DUP3 MSTORE MLOAD SWAP1 DUP2 SWAP1 SUB PUSH1 0x20 ADD SWAP1 RETURN JUMPDEST CALLVALUE DUP1 ISZERO PUSH2 0x1A1 JUMPI PUSH1 0x0 DUP1 REVERT JUMPDEST POP PUSH2 0x179 PUSH2 0x421 JUMP JUMPDEST CALLVALUE DUP1 ISZERO PUSH2 0x1B6 JUMPI PUSH1 0x0 DUP1 REVERT JUMPDEST POP PUSH2 0xC1 PUSH2 0x430 JUMP JUMPDEST PUSH2 0x105 PUSH2 0x4BD JUMP JUMPDEST CALLVALUE DUP1 ISZERO PUSH2 0x1D3 JUMPI PUSH1 0x0 DUP1 REVERT JUMPDEST POP PUSH2 0x179 PUSH1 0x4 DUP1 CALLDATASIZE SUB PUSH1 0x20 DUP2 LT ISZERO PUSH2 0x1EA JUMPI PUSH1 0x0 DUP1 REVERT JUMPDEST POP CALLDATALOAD PUSH2 0x57A JUMP JUMPDEST CALLVALUE DUP1 ISZERO PUSH2 0x1FD JUMPI PUSH1 0x0 DUP1 REVERT JUMPDEST POP PUSH2 0xC1 PUSH2 0x5A1 JUMP JUMPDEST PUSH1 0x0 PUSH9 0x2B5E3AF16B1880000 DUP2 PUSH2 0x21B PUSH2 0x430 JUMP JUMPDEST SWAP1 POP PUSH8 0xDE0B6B3A7640000 DUP2 DUP4 DUP3 MUL DUP2 PUSH2 0x231 JUMPI INVALID JUMPDEST DIV SWAP4 POP POP POP POP SWAP1 JUMP JUMPDEST PUSH1 0x3 SLOAD PUSH1 0x40 DUP1 MLOAD PUSH4 0x54FD4D5 PUSH1 0xE4 SHL DUP2 MSTORE SWAP1 MLOAD PUSH1 0x0 SWAP3 PUSH1 0x1 PUSH1 0x1 PUSH1 0xA0 SHL SUB AND SWAP2 PUSH4 0x54FD4D50 SWAP2 PUSH1 0x4 DUP1 DUP4 ADD SWAP3 PUSH1 0x20 SWAP3 SWAP2 SWAP1 DUP3 SWAP1 SUB ADD DUP2 DUP7 DUP1 EXTCODESIZE ISZERO DUP1 ISZERO PUSH2 0x27F JUMPI PUSH1 0x0 DUP1 REVERT JUMPDEST POP GAS STATICCALL ISZERO DUP1 ISZERO PUSH2 0x293 JUMPI RETURNDATASIZE PUSH1 0x0 DUP1 RETURNDATACOPY RETURNDATASIZE PUSH1 0x0 REVERT JUMPDEST POP POP POP POP PUSH1 0x40 MLOAD RETURNDATASIZE PUSH1 0x20 DUP2 LT ISZERO PUSH2 0x2A9 JUMPI PUSH1 0x0 DUP1 REVERT JUMPDEST POP MLOAD SWAP1 POP SWAP1 JUMP JUMPDEST PUSH1 0x0 DUP1 PUSH20 0x8A753747A1FA494EC906CE90E9F37563A8AF630E SWAP1 POP DUP1 PUSH1 0x1 PUSH1 0x1 PUSH1 0xA0 SHL SUB AND PUSH4 0x54FD4D50 PUSH1 0x40 MLOAD DUP2 PUSH4 0xFFFFFFFF AND PUSH1 0xE0 SHL DUP2 MSTORE PUSH1 0x4 ADD PUSH1 0x20 PUSH1 0x40 MLOAD DUP1 DUP4 SUB DUP2 DUP7 DUP1 EXTCODESIZE ISZERO DUP1 ISZERO PUSH2 0x303 JUMPI PUSH1 0x0 DUP1 REVERT JUMPDEST POP GAS STATICCALL ISZERO DUP1 ISZERO PUSH2 0x317 JUMPI RETURNDATASIZE PUSH1 0x0 DUP1 RETURNDATACOPY RETURNDATASIZE PUSH1 0x0 REVERT JUMPDEST POP POP POP POP PUSH1 0x40 MLOAD RETURNDATASIZE PUSH1 0x20 DUP2 LT ISZERO PUSH2 0x32D JUMPI PUSH1 0x0 DUP1 REVERT JUMPDEST POP MLOAD SWAP2 POP POP SWAP1 JUMP JUMPDEST PUSH1 0x2 SLOAD PUSH1 0x1 PUSH1 0x1 PUSH1 0xA0 SHL SUB AND CALLER EQ PUSH2 0x34C JUMPI PUSH1 0x0 DUP1 REVERT JUMPDEST PUSH1 0x40 MLOAD CALLER SWAP1 SELFBALANCE DUP1 ISZERO PUSH2 0x8FC MUL SWAP2 PUSH1 0x0 DUP2 DUP2 DUP2 DUP6 DUP9 DUP9 CALL SWAP4 POP POP POP POP ISZERO DUP1 ISZERO PUSH2 0x378 JUMPI RETURNDATASIZE PUSH1 0x0 DUP1 RETURNDATACOPY RETURNDATASIZE PUSH1 0x0 REVERT JUMPDEST POP PUSH1 0x0 JUMPDEST PUSH1 0x1 SLOAD DUP2 LT ISZERO PUSH2 0x3BF JUMPI PUSH1 0x0 PUSH1 0x1 DUP3 DUP2 SLOAD DUP2 LT PUSH2 0x395 JUMPI INVALID JUMPDEST PUSH1 0x0 SWAP2 DUP3 MSTORE PUSH1 0x20 DUP1 DUP4 KECCAK256 SWAP1 SWAP2 ADD SLOAD PUSH1 0x1 PUSH1 0x1 PUSH1 0xA0 SHL SUB AND DUP3 MSTORE DUP2 SWAP1 MSTORE PUSH1 0x40 DUP2 KECCAK256 SSTORE POP PUSH1 0x1 ADD PUSH2 0x37C JUMP JUMPDEST POP PUSH1 0x40 DUP1 MLOAD PUSH1 0x0 DUP2 MSTORE PUSH1 0x20 DUP2 ADD SWAP2 DUP3 SWAP1 MSTORE MLOAD PUSH2 0x3DD SWAP2 PUSH1 0x1 SWAP2 PUSH2 0x633 JUMP JUMPDEST POP JUMP JUMPDEST PUSH1 0x0 PUSH1 0x20 DUP2 SWAP1 MSTORE SWAP1 DUP2 MSTORE PUSH1 0x40 SWAP1 KECCAK256 SLOAD DUP2 JUMP JUMPDEST PUSH1 0x0 DUP1 PUSH2 0x3FD PUSH2 0x430 JUMP JUMPDEST PUSH8 0xDE0B6B3A7640000 SWAP4 MUL SWAP3 SWAP1 SWAP3 DIV SWAP3 SWAP2 POP POP JUMP JUMPDEST PUSH1 0x3 SLOAD PUSH1 0x1 PUSH1 0x1 PUSH1 0xA0 SHL SUB AND DUP2 JUMP JUMPDEST PUSH1 0x2 SLOAD PUSH1 0x1 PUSH1 0x1 PUSH1 0xA0 SHL SUB AND DUP2 JUMP JUMPDEST PUSH1 0x0 DUP1 PUSH1 0x3 PUSH1 0x0 SWAP1 SLOAD SWAP1 PUSH2 0x100 EXP SWAP1 DIV PUSH1 0x1 PUSH1 0x1 PUSH1 0xA0 SHL SUB AND PUSH1 0x1 PUSH1 0x1 PUSH1 0xA0 SHL SUB AND PUSH4 0xFEAF968C PUSH1 0x40 MLOAD DUP2 PUSH4 0xFFFFFFFF AND PUSH1 0xE0 SHL DUP2 MSTORE PUSH1 0x4 ADD PUSH1 0xA0 PUSH1 0x40 MLOAD DUP1 DUP4 SUB DUP2 DUP7 DUP1 EXTCODESIZE ISZERO DUP1 ISZERO PUSH2 0x481 JUMPI PUSH1 0x0 DUP1 REVERT JUMPDEST POP GAS STATICCALL ISZERO DUP1 ISZERO PUSH2 0x495 JUMPI RETURNDATASIZE PUSH1 0x0 DUP1 RETURNDATACOPY RETURNDATASIZE PUSH1 0x0 REVERT JUMPDEST POP POP POP POP PUSH1 0x40 MLOAD RETURNDATASIZE PUSH1 0xA0 DUP2 LT ISZERO PUSH2 0x4AB JUMPI PUSH1 0x0 DUP1 REVERT JUMPDEST POP PUSH1 0x20 ADD MLOAD PUSH5 0x2540BE400 MUL SWAP2 POP POP SWAP1 JUMP JUMPDEST PUSH9 0x2B5E3AF16B1880000 DUP1 PUSH2 0x4D1 CALLVALUE PUSH2 0x3F2 JUMP JUMPDEST LT ISZERO PUSH2 0x524 JUMPI PUSH1 0x40 DUP1 MLOAD PUSH3 0x461BCD PUSH1 0xE5 SHL DUP2 MSTORE PUSH1 0x20 PUSH1 0x4 DUP3 ADD MSTORE PUSH1 0x1B PUSH1 0x24 DUP3 ADD MSTORE PUSH32 0x596F75206E65656420746F207370656E64206D6F726520455448210000000000 PUSH1 0x44 DUP3 ADD MSTORE SWAP1 MLOAD SWAP1 DUP2 SWAP1 SUB PUSH1 0x64 ADD SWAP1 REVERT JUMPDEST POP CALLER PUSH1 0x0 DUP2 DUP2 MSTORE PUSH1 0x20 DUP2 SWAP1 MSTORE PUSH1 0x40 DUP2 KECCAK256 DUP1 SLOAD CALLVALUE ADD SWAP1 SSTORE PUSH1 0x1 DUP1 SLOAD DUP1 DUP3 ADD DUP3 SSTORE SWAP2 MSTORE PUSH32 0xB10E2D527612073B26EECDFD717E6A320CF44B4AFAC2B0732D9FCBE2B7FA0CF6 ADD DUP1 SLOAD PUSH1 0x1 PUSH1 0x1 PUSH1 0xA0 SHL SUB NOT AND SWAP1 SWAP2 OR SWAP1 SSTORE JUMP JUMPDEST PUSH1 0x1 DUP2 DUP2 SLOAD DUP2 LT PUSH2 0x587 JUMPI INVALID JUMPDEST PUSH1 0x0 SWAP2 DUP3 MSTORE PUSH1 0x20 SWAP1 SWAP2 KECCAK256 ADD SLOAD PUSH1 0x1 PUSH1 0x1 PUSH1 0xA0 SHL SUB AND SWAP1 POP DUP2 JUMP JUMPDEST PUSH1 0x0 DUP1 PUSH20 0x8A753747A1FA494EC906CE90E9F37563A8AF630E SWAP1 POP PUSH1 0x0 DUP2 PUSH1 0x1 PUSH1 0x1 PUSH1 0xA0 SHL SUB AND PUSH4 0xFEAF968C PUSH1 0x40 MLOAD DUP2 PUSH4 0xFFFFFFFF AND PUSH1 0xE0 SHL DUP2 MSTORE PUSH1 0x4 ADD PUSH1 0xA0 PUSH1 0x40 MLOAD DUP1 DUP4 SUB DUP2 DUP7 DUP1 EXTCODESIZE ISZERO DUP1 ISZERO PUSH2 0x5F6 JUMPI PUSH1 0x0 DUP1 REVERT JUMPDEST POP GAS STATICCALL ISZERO DUP1 ISZERO PUSH2 0x60A JUMPI RETURNDATASIZE PUSH1 0x0 DUP1 RETURNDATACOPY RETURNDATASIZE PUSH1 0x0 REVERT JUMPDEST POP POP POP POP PUSH1 0x40 MLOAD RETURNDATASIZE PUSH1 0xA0 DUP2 LT ISZERO PUSH2 0x620 JUMPI PUSH1 0x0 DUP1 REVERT JUMPDEST POP PUSH1 0x20 ADD MLOAD PUSH5 0x2540BE400 MUL SWAP3 POP POP POP SWAP1 JUMP JUMPDEST DUP3 DUP1 SLOAD DUP3 DUP3 SSTORE SWAP1 PUSH1 0x0 MSTORE PUSH1 0x20 PUSH1 0x0 KECCAK256 SWAP1 DUP2 ADD SWAP3 DUP3 ISZERO PUSH2 0x688 JUMPI SWAP2 PUSH1 0x20 MUL DUP3 ADD JUMPDEST DUP3 DUP2 GT ISZERO PUSH2 0x688 JUMPI DUP3 MLOAD DUP3 SLOAD PUSH1 0x1 PUSH1 0x1 PUSH1 0xA0 SHL SUB NOT AND PUSH1 0x1 PUSH1 0x1 PUSH1 0xA0 SHL SUB SWAP1 SWAP2 AND OR DUP3 SSTORE PUSH1 0x20 SWAP1 SWAP3 ADD SWAP2 PUSH1 0x1 SWAP1 SWAP2 ADD SWAP1 PUSH2 0x653 JUMP JUMPDEST POP PUSH2 0x694 SWAP3 SWAP2 POP PUSH2 0x698 JUMP JUMPDEST POP SWAP1 JUMP JUMPDEST JUMPDEST DUP1 DUP3 GT ISZERO PUSH2 0x694 JUMPI DUP1 SLOAD PUSH1 0x1 PUSH1 0x1 PUSH1 0xA0 SHL SUB NOT AND DUP2 SSTORE PUSH1 0x1 ADD PUSH2 0x699 JUMP INVALID LOG2 PUSH5 0x6970667358 0x22 SLT KECCAK256 EXTCODECOPY RETURNDATACOPY DUP1 SWAP4 PUSH22 0x6A91A4641EBA32E05CBF0E21A2083F3E935DD529B3C8 REVERT TIMESTAMP 0x2F INVALID 0xD5 PUSH5 0x736F6C6343 STOP MOD 0xC STOP CALLER ","sha1":"a1c2ff91e3139be62b7db19afe1f319fc0db4ede","source":"// SPDX-License-Identifier: MIT\n\n// Smart contract that lets anyone deposit ETH into the contract\n// Only the owner of the contract can withdraw the ETH\npragma solidity ^0.6.6;\n\n// Get the latest ETH/USD price from chainlink price feed\nimport \"@chainlink/contracts/src/v0.6/interfaces/AggregatorV3Interface.sol\";\nimport \"@chainlink/contracts/src/v0.6/vendor/SafeMathChainlink.sol\";\n\ncontract FundMe {\n    // safe math library check uint256 for integer overflows\n    using SafeMathChainlink for uint256;\n\n    //mapping to store which address depositeded how much ETH\n    mapping(address => uint256) public addressToAmountFunded;\n    // array of addresses who deposited\n    address[] public funders;\n    //address of the owner (who deployed the contract)\n    address public owner;\n    AggregatorV3Interface public priceFeed;\n\n    // the first person to deploy the contract is\n    // the owner\n    constructor(address _priceFeed) public {\n        priceFeed = AggregatorV3Interface(_priceFeed);\n        owner = msg.sender;\n    }\n\n    function fund() public payable {\n        // 18 digit number to be compared with donated amount\n        uint256 minimumUSD = 50 * 10**18;\n        //is the donated amount less than 50USD?\n        require(\n            getConversionRate(msg.value) >= minimumUSD,\n            \"You need to spend more ETH!\"\n        );\n        //if not, add to mapping and funders array\n        addressToAmountFunded[msg.sender] += msg.value;\n        funders.push(msg.sender);\n    }\n\n    //function to get the version of the chainlink pricefeed\n    function getVersion_notUsed() public view returns (uint256) {\n        AggregatorV3Interface priceFeed = AggregatorV3Interface(\n            0x8A753747A1Fa494EC906cE90E9f37563A8AF630e\n        );\n        return priceFeed.version();\n    }\n\n    function getVersion() public view returns (uint256) {\n        return priceFeed.version();\n    }\n\n    // This address is hard coded to work wioth the Rinkeby chain\n    // So this will be hard to work with any other chain other than Rinkeby\n    // Also this pricefeed contract does not exists in local Ganache chain that Brownie spins-up\n    // There are two workaround : 竭 Forking縲竭｡ Mocking\n    // https://youtu.be/M576WGiDBdQ?t=19273\n    // Run the below command and will get error\n    // $ brownie run scripts/deploy.py\n    // ValueError: Explorer API not set for this network\n    // We need to parameterize the FindMe.sol constructor so that we dont need this hardcoded address\n    function getPrice_notUsed() public view returns (uint256) {\n        AggregatorV3Interface priceFeed = AggregatorV3Interface(\n            0x8A753747A1Fa494EC906cE90E9f37563A8AF630e\n        );\n        (, int256 answer, , , ) = priceFeed.latestRoundData();\n        // ETH/USD rate in 18 digit\n        return uint256(answer * 10000000000);\n    }\n\n    function getPrice() public view returns (uint256) {\n        (, int256 answer, , , ) = priceFeed.latestRoundData();\n        // ETH/USD rate in 18 digit\n        return uint256(answer * 10000000000);\n    }\n\n    // 1000000000\n    function getConversionRate(uint256 ethAmount)\n        public\n        view\n        returns (uint256)\n    {\n        uint256 ethPrice = getPrice();\n        uint256 ethAmountInUsd = (ethPrice * ethAmount) / 1000000000000000000;\n        // the actual ETH/USD conversation rate, after adjusting the extra 0s.\n        return ethAmountInUsd;\n    }\n\n    function getEntranceFee() public view returns (uint256) {\n        uint256 minimumUSD = 50 * 10**18;\n        uint256 price = getPrice();\n        uint256 precision = 1 * 10**18;\n        return (minimumUSD * precision) / price;\n    }\n\n    //modifier: https://medium.com/coinmonks/solidity-tutorial-all-about-modifiers-a86cf81c14cb\n    modifier onlyOwner() {\n        //is the message sender owner of the contract?\n        require(msg.sender == owner);\n\n        _;\n    }\n\n    // onlyOwner modifer will first check the condition inside it\n    // and\n    // if true, withdraw function will be executed\n    function withdraw() public payable onlyOwner {\n        // If you are using Solidity version v0.8.0 or above,\n        // you will need to modify the code below to\n        // payable(msg.sender).transfer(address(this).balance);\n        msg.sender.transfer(address(this).balance);\n\n        //iterate through all the mappings and make them 0\n        //since all the deposited amount has been withdrawn\n        for (\n            uint256 funderIndex = 0;\n            funderIndex < funders.length;\n            funderIndex++\n        ) {\n            address funder = funders[funderIndex];\n            addressToAmountFunded[funder] = 0;\n        }\n        //funders array will be initialized to 0\n        funders = new address[](0);\n    }\n}\n\n// https://youtu.be/M576WGiDBdQ?t=21465\n// ValueError: Gas estimation failed: 'execution reverted: VM Exception while processing transaction: revert You\n// need to spend more ETH!'. This transaction will likely revert. If you wish to broadcast, you must set the gas\n// limit manually.\n\n// Adding mainnet fork\n// https://youtu.be/M576WGiDBdQ?t=21610\n","sourcePath":"contracts/FundMe.sol","type":"contract","deployment":{"address":"0x4dCCec89Df83bd3caAF2cCb4295548fe34228ce9","chainid":"1337","blockHeight":2}}